{
  "contractName": "LockableToken",
  "abi": [
    {
      "constant": false,
      "inputs": [
        {
          "name": "spender",
          "type": "address"
        },
        {
          "name": "value",
          "type": "uint256"
        }
      ],
      "name": "approve",
      "outputs": [
        {
          "name": "",
          "type": "bool"
        }
      ],
      "payable": false,
      "stateMutability": "nonpayable",
      "type": "function"
    },
    {
      "constant": true,
      "inputs": [
        {
          "name": "_of",
          "type": "address"
        },
        {
          "name": "_reason",
          "type": "bytes32"
        },
        {
          "name": "_time",
          "type": "uint256"
        }
      ],
      "name": "tokensLockedAtTime",
      "outputs": [
        {
          "name": "amount",
          "type": "uint256"
        }
      ],
      "payable": false,
      "stateMutability": "view",
      "type": "function"
    },
    {
      "constant": true,
      "inputs": [],
      "name": "totalSupply",
      "outputs": [
        {
          "name": "",
          "type": "uint256"
        }
      ],
      "payable": false,
      "stateMutability": "view",
      "type": "function"
    },
    {
      "constant": false,
      "inputs": [
        {
          "name": "from",
          "type": "address"
        },
        {
          "name": "to",
          "type": "address"
        },
        {
          "name": "value",
          "type": "uint256"
        }
      ],
      "name": "transferFrom",
      "outputs": [
        {
          "name": "",
          "type": "bool"
        }
      ],
      "payable": false,
      "stateMutability": "nonpayable",
      "type": "function"
    },
    {
      "constant": false,
      "inputs": [
        {
          "name": "_reason",
          "type": "bytes32"
        },
        {
          "name": "_amount",
          "type": "uint256"
        },
        {
          "name": "_time",
          "type": "uint256"
        }
      ],
      "name": "lock",
      "outputs": [
        {
          "name": "",
          "type": "bool"
        }
      ],
      "payable": false,
      "stateMutability": "nonpayable",
      "type": "function"
    },
    {
      "constant": false,
      "inputs": [
        {
          "name": "_of",
          "type": "address"
        }
      ],
      "name": "unlock",
      "outputs": [
        {
          "name": "unlockableTokens",
          "type": "uint256"
        }
      ],
      "payable": false,
      "stateMutability": "nonpayable",
      "type": "function"
    },
    {
      "constant": false,
      "inputs": [
        {
          "name": "spender",
          "type": "address"
        },
        {
          "name": "addedValue",
          "type": "uint256"
        }
      ],
      "name": "increaseAllowance",
      "outputs": [
        {
          "name": "",
          "type": "bool"
        }
      ],
      "payable": false,
      "stateMutability": "nonpayable",
      "type": "function"
    },
    {
      "constant": true,
      "inputs": [
        {
          "name": "_of",
          "type": "address"
        }
      ],
      "name": "totalBalanceOf",
      "outputs": [
        {
          "name": "amount",
          "type": "uint256"
        }
      ],
      "payable": false,
      "stateMutability": "view",
      "type": "function"
    },
    {
      "constant": false,
      "inputs": [
        {
          "name": "_to",
          "type": "address"
        },
        {
          "name": "_reason",
          "type": "bytes32"
        },
        {
          "name": "_amount",
          "type": "uint256"
        },
        {
          "name": "_time",
          "type": "uint256"
        }
      ],
      "name": "transferWithLock",
      "outputs": [
        {
          "name": "",
          "type": "bool"
        }
      ],
      "payable": false,
      "stateMutability": "nonpayable",
      "type": "function"
    },
    {
      "constant": true,
      "inputs": [
        {
          "name": "_of",
          "type": "address"
        },
        {
          "name": "_reason",
          "type": "bytes32"
        }
      ],
      "name": "tokensUnlockable",
      "outputs": [
        {
          "name": "amount",
          "type": "uint256"
        }
      ],
      "payable": false,
      "stateMutability": "view",
      "type": "function"
    },
    {
      "constant": true,
      "inputs": [
        {
          "name": "_of",
          "type": "address"
        },
        {
          "name": "_reason",
          "type": "bytes32"
        }
      ],
      "name": "tokensLocked",
      "outputs": [
        {
          "name": "amount",
          "type": "uint256"
        }
      ],
      "payable": false,
      "stateMutability": "view",
      "type": "function"
    },
    {
      "constant": true,
      "inputs": [
        {
          "name": "owner",
          "type": "address"
        }
      ],
      "name": "balanceOf",
      "outputs": [
        {
          "name": "",
          "type": "uint256"
        }
      ],
      "payable": false,
      "stateMutability": "view",
      "type": "function"
    },
    {
      "constant": true,
      "inputs": [
        {
          "name": "",
          "type": "address"
        },
        {
          "name": "",
          "type": "uint256"
        }
      ],
      "name": "lockReason",
      "outputs": [
        {
          "name": "",
          "type": "bytes32"
        }
      ],
      "payable": false,
      "stateMutability": "view",
      "type": "function"
    },
    {
      "constant": false,
      "inputs": [
        {
          "name": "_reason",
          "type": "bytes32"
        },
        {
          "name": "_amount",
          "type": "uint256"
        }
      ],
      "name": "increaseLockAmount",
      "outputs": [
        {
          "name": "",
          "type": "bool"
        }
      ],
      "payable": false,
      "stateMutability": "nonpayable",
      "type": "function"
    },
    {
      "constant": false,
      "inputs": [
        {
          "name": "spender",
          "type": "address"
        },
        {
          "name": "subtractedValue",
          "type": "uint256"
        }
      ],
      "name": "decreaseAllowance",
      "outputs": [
        {
          "name": "",
          "type": "bool"
        }
      ],
      "payable": false,
      "stateMutability": "nonpayable",
      "type": "function"
    },
    {
      "constant": false,
      "inputs": [
        {
          "name": "to",
          "type": "address"
        },
        {
          "name": "value",
          "type": "uint256"
        }
      ],
      "name": "transfer",
      "outputs": [
        {
          "name": "",
          "type": "bool"
        }
      ],
      "payable": false,
      "stateMutability": "nonpayable",
      "type": "function"
    },
    {
      "constant": false,
      "inputs": [
        {
          "name": "_reason",
          "type": "bytes32"
        },
        {
          "name": "_time",
          "type": "uint256"
        }
      ],
      "name": "extendLock",
      "outputs": [
        {
          "name": "",
          "type": "bool"
        }
      ],
      "payable": false,
      "stateMutability": "nonpayable",
      "type": "function"
    },
    {
      "constant": true,
      "inputs": [
        {
          "name": "_of",
          "type": "address"
        }
      ],
      "name": "getUnlockableTokens",
      "outputs": [
        {
          "name": "unlockableTokens",
          "type": "uint256"
        }
      ],
      "payable": false,
      "stateMutability": "view",
      "type": "function"
    },
    {
      "constant": true,
      "inputs": [
        {
          "name": "",
          "type": "address"
        },
        {
          "name": "",
          "type": "bytes32"
        }
      ],
      "name": "locked",
      "outputs": [
        {
          "name": "amount",
          "type": "uint256"
        },
        {
          "name": "validity",
          "type": "uint256"
        },
        {
          "name": "claimed",
          "type": "bool"
        }
      ],
      "payable": false,
      "stateMutability": "view",
      "type": "function"
    },
    {
      "constant": true,
      "inputs": [
        {
          "name": "owner",
          "type": "address"
        },
        {
          "name": "spender",
          "type": "address"
        }
      ],
      "name": "allowance",
      "outputs": [
        {
          "name": "",
          "type": "uint256"
        }
      ],
      "payable": false,
      "stateMutability": "view",
      "type": "function"
    },
    {
      "inputs": [
        {
          "name": "_supply",
          "type": "uint256"
        }
      ],
      "payable": false,
      "stateMutability": "nonpayable",
      "type": "constructor"
    },
    {
      "anonymous": false,
      "inputs": [
        {
          "indexed": true,
          "name": "_of",
          "type": "address"
        },
        {
          "indexed": true,
          "name": "_reason",
          "type": "bytes32"
        },
        {
          "indexed": false,
          "name": "_amount",
          "type": "uint256"
        },
        {
          "indexed": false,
          "name": "_validity",
          "type": "uint256"
        }
      ],
      "name": "Locked",
      "type": "event"
    },
    {
      "anonymous": false,
      "inputs": [
        {
          "indexed": true,
          "name": "_of",
          "type": "address"
        },
        {
          "indexed": true,
          "name": "_reason",
          "type": "bytes32"
        },
        {
          "indexed": false,
          "name": "_amount",
          "type": "uint256"
        }
      ],
      "name": "Unlocked",
      "type": "event"
    },
    {
      "anonymous": false,
      "inputs": [
        {
          "indexed": true,
          "name": "from",
          "type": "address"
        },
        {
          "indexed": true,
          "name": "to",
          "type": "address"
        },
        {
          "indexed": false,
          "name": "value",
          "type": "uint256"
        }
      ],
      "name": "Transfer",
      "type": "event"
    },
    {
      "anonymous": false,
      "inputs": [
        {
          "indexed": true,
          "name": "owner",
          "type": "address"
        },
        {
          "indexed": true,
          "name": "spender",
          "type": "address"
        },
        {
          "indexed": false,
          "name": "value",
          "type": "uint256"
        }
      ],
      "name": "Approval",
      "type": "event"
    }
  ],
  "bytecode": "0x60806040523480156200001157600080fd5b50604051602080620025d2833981018060405260208110156200003357600080fd5b81019080805190602001909291905050506200005f338262000066640100000000026401000000009004565b50620001fd565b600073ffffffffffffffffffffffffffffffffffffffff168273ffffffffffffffffffffffffffffffffffffffff1614151515620000a357600080fd5b620000c881600254620001db6401000000000262002378179091906401000000009004565b6002819055506200012f816000808573ffffffffffffffffffffffffffffffffffffffff1673ffffffffffffffffffffffffffffffffffffffff16815260200190815260200160002054620001db6401000000000262002378179091906401000000009004565b6000808473ffffffffffffffffffffffffffffffffffffffff1673ffffffffffffffffffffffffffffffffffffffff168152602001908152602001600020819055508173ffffffffffffffffffffffffffffffffffffffff16600073ffffffffffffffffffffffffffffffffffffffff167fddf252ad1be2c89b69c2b068fc378daa952ba7f163c4a11628f55a4df523b3ef836040518082815260200191505060405180910390a35050565b6000808284019050838110151515620001f357600080fd5b8091505092915050565b6123c5806200020d6000396000f3fe608060405234801561001057600080fd5b5060043610610149576000357c0100000000000000000000000000000000000000000000000000000000900480635ca48d8c116100ca578063a9059cbb1161008e578063a9059cbb146106e2578063a9dab16714610748578063ab4a2eb314610798578063d71be8db146107f0578063dd62ed3e1461086457610149565b80635ca48d8c1461051057806370a082311461057257806371d66f00146105ca57806381fc4d901461062c578063a457c2d71461067c57610149565b80632f6c493c116101115780632f6c493c1461031e57806339509351146103765780634b0ee02a146103dc5780634cb5465f146104345780635294d0e8146104ae57610149565b8063095ea7b31461014e578063179e91f1146101b457806318160ddd1461022057806323b872dd1461023e5780632e82aaf2146102c4575b600080fd5b61019a6004803603604081101561016457600080fd5b81019080803573ffffffffffffffffffffffffffffffffffffffff169060200190929190803590602001909291905050506108dc565b604051808215151515815260200191505060405180910390f35b61020a600480360360608110156101ca57600080fd5b81019080803573ffffffffffffffffffffffffffffffffffffffff16906020019092919080359060200190929190803590602001909291905050506108f3565b6040518082815260200191505060405180910390f35b6102286109ae565b6040518082815260200191505060405180910390f35b6102aa6004803603606081101561025457600080fd5b81019080803573ffffffffffffffffffffffffffffffffffffffff169060200190929190803573ffffffffffffffffffffffffffffffffffffffff169060200190929190803590602001909291905050506109b8565b604051808215151515815260200191505060405180910390f35b610304600480360360608110156102da57600080fd5b81019080803590602001909291908035906020019092919080359060200190929190505050610a69565b604051808215151515815260200191505060405180910390f35b6103606004803603602081101561033457600080fd5b81019080803573ffffffffffffffffffffffffffffffffffffffff169060200190929190505050610e2b565b6040518082815260200191505060405180910390f35b6103c26004803603604081101561038c57600080fd5b81019080803573ffffffffffffffffffffffffffffffffffffffff16906020019092919080359060200190929190505050611163565b604051808215151515815260200191505060405180910390f35b61041e600480360360208110156103f257600080fd5b81019080803573ffffffffffffffffffffffffffffffffffffffff169060200190929190505050611208565b6040518082815260200191505060405180910390f35b6104946004803603608081101561044a57600080fd5b81019080803573ffffffffffffffffffffffffffffffffffffffff1690602001909291908035906020019092919080359060200190929190803590602001909291905050506112ec565b604051808215151515815260200191505060405180910390f35b6104fa600480360360408110156104c457600080fd5b81019080803573ffffffffffffffffffffffffffffffffffffffff169060200190929190803590602001909291905050506116af565b6040518082815260200191505060405180910390f35b61055c6004803603604081101561052657600080fd5b81019080803573ffffffffffffffffffffffffffffffffffffffff169060200190929190803590602001909291905050506117d4565b6040518082815260200191505060405180910390f35b6105b46004803603602081101561058857600080fd5b81019080803573ffffffffffffffffffffffffffffffffffffffff16906020019092919050505061189a565b6040518082815260200191505060405180910390f35b610616600480360360408110156105e057600080fd5b81019080803573ffffffffffffffffffffffffffffffffffffffff169060200190929190803590602001909291905050506118e2565b6040518082815260200191505060405180910390f35b6106626004803603604081101561064257600080fd5b810190808035906020019092919080359060200190929190505050611912565b604051808215151515815260200191505060405180910390f35b6106c86004803603604081101561069257600080fd5b81019080803573ffffffffffffffffffffffffffffffffffffffff16906020019092919080359060200190929190505050611b72565b604051808215151515815260200191505060405180910390f35b61072e600480360360408110156106f857600080fd5b81019080803573ffffffffffffffffffffffffffffffffffffffff16906020019092919080359060200190929190505050611c17565b604051808215151515815260200191505060405180910390f35b61077e6004803603604081101561075e57600080fd5b810190808035906020019092919080359060200190929190505050611c2e565b604051808215151515815260200191505060405180910390f35b6107da600480360360208110156107ae57600080fd5b81019080803573ffffffffffffffffffffffffffffffffffffffff169060200190929190505050611e83565b6040518082815260200191505060405180910390f35b61083c6004803603604081101561080657600080fd5b81019080803573ffffffffffffffffffffffffffffffffffffffff16906020019092919080359060200190929190505050611f5c565b6040518084815260200183815260200182151515158152602001935050505060405180910390f35b6108c66004803603604081101561087a57600080fd5b81019080803573ffffffffffffffffffffffffffffffffffffffff169060200190929190803573ffffffffffffffffffffffffffffffffffffffff169060200190929190505050611fa0565b6040518082815260200191505060405180910390f35b60006108e9338484612027565b6001905092915050565b600081600460008673ffffffffffffffffffffffffffffffffffffffff1673ffffffffffffffffffffffffffffffffffffffff16815260200190815260200160002060008581526020019081526020016000206001015411156109a757600460008573ffffffffffffffffffffffffffffffffffffffff1673ffffffffffffffffffffffffffffffffffffffff16815260200190815260200160002060008481526020019081526020016000206000015490505b9392505050565b6000600254905090565b60006109c584848461218a565b610a5e8433610a5985600160008a73ffffffffffffffffffffffffffffffffffffffff1673ffffffffffffffffffffffffffffffffffffffff16815260200190815260200160002060003373ffffffffffffffffffffffffffffffffffffffff1673ffffffffffffffffffffffffffffffffffffffff1681526020019081526020016000205461235690919063ffffffff16565b612027565b600190509392505050565b600080610a7f834261237890919063ffffffff16565b90506000610a8d33876117d4565b146040805190810160405280601581526020017f546f6b656e7320616c7265616479206c6f636b65640000000000000000000000815250901515610b6c576040517f08c379a00000000000000000000000000000000000000000000000000000000081526004018080602001828103825283818151815260200191508051906020019080838360005b83811015610b31578082015181840152602081019050610b16565b50505050905090810190601f168015610b5e5780820380516001836020036101000a031916815260200191505b509250505060405180910390fd5b5060008414156040805190810160405280601381526020017f416d6f756e742063616e206e6f74206265203000000000000000000000000000815250901515610c50576040517f08c379a00000000000000000000000000000000000000000000000000000000081526004018080602001828103825283818151815260200191508051906020019080838360005b83811015610c15578082015181840152602081019050610bfa565b50505050905090810190601f168015610c425780820380516001836020036101000a031916815260200191505b509250505060405180910390fd5b506000600460003373ffffffffffffffffffffffffffffffffffffffff1673ffffffffffffffffffffffffffffffffffffffff1681526020019081526020016000206000878152602001908152602001600020600001541415610d1757600360003373ffffffffffffffffffffffffffffffffffffffff1673ffffffffffffffffffffffffffffffffffffffff1681526020019081526020016000208590806001815401808255809150509060018203906000526020600020016000909192909190915055505b610d213085611c17565b5060606040519081016040528085815260200182815260200160001515815250600460003373ffffffffffffffffffffffffffffffffffffffff1673ffffffffffffffffffffffffffffffffffffffff1681526020019081526020016000206000878152602001908152602001600020600082015181600001556020820151816001015560408201518160020160006101000a81548160ff021916908315150217905550905050843373ffffffffffffffffffffffffffffffffffffffff167fea90ef40963535482537f0689e05cb8d259e459ebd21530e826702294d0eafdd8684604051808381526020018281526020019250505060405180910390a360019150509392505050565b60008060008090505b600360008573ffffffffffffffffffffffffffffffffffffffff1673ffffffffffffffffffffffffffffffffffffffff1681526020019081526020016000208054905081101561107357610ede84600360008773ffffffffffffffffffffffffffffffffffffffff1673ffffffffffffffffffffffffffffffffffffffff16815260200190815260200160002083815481101515610ece57fe5b90600052602060002001546116af565b9150600082111561106657610efc828461237890919063ffffffff16565b92506001600460008673ffffffffffffffffffffffffffffffffffffffff1673ffffffffffffffffffffffffffffffffffffffff1681526020019081526020016000206000600360008873ffffffffffffffffffffffffffffffffffffffff1673ffffffffffffffffffffffffffffffffffffffff16815260200190815260200160002084815481101515610f8d57fe5b9060005260206000200154815260200190815260200160002060020160006101000a81548160ff021916908315150217905550600360008573ffffffffffffffffffffffffffffffffffffffff1673ffffffffffffffffffffffffffffffffffffffff1681526020019081526020016000208181548110151561100c57fe5b90600052602060002001548473ffffffffffffffffffffffffffffffffffffffff167f11f87fd5adcd05786919b8b868f59a70d78ae4eb6f305c5927f9c5b1659841a4846040518082815260200191505060405180910390a35b8080600101915050610e34565b50600082111561115d573073ffffffffffffffffffffffffffffffffffffffff1663a9059cbb84846040518363ffffffff167c0100000000000000000000000000000000000000000000000000000000028152600401808373ffffffffffffffffffffffffffffffffffffffff1673ffffffffffffffffffffffffffffffffffffffff16815260200182815260200192505050602060405180830381600087803b15801561112057600080fd5b505af1158015611134573d6000803e3d6000fd5b505050506040513d602081101561114a57600080fd5b8101908080519060200190929190505050505b50919050565b60006111fe33846111f985600160003373ffffffffffffffffffffffffffffffffffffffff1673ffffffffffffffffffffffffffffffffffffffff16815260200190815260200160002060008973ffffffffffffffffffffffffffffffffffffffff1673ffffffffffffffffffffffffffffffffffffffff1681526020019081526020016000205461237890919063ffffffff16565b612027565b6001905092915050565b60006112138261189a565b905060008090505b600360008473ffffffffffffffffffffffffffffffffffffffff1673ffffffffffffffffffffffffffffffffffffffff168152602001908152602001600020805490508110156112e6576112d76112c884600360008773ffffffffffffffffffffffffffffffffffffffff1673ffffffffffffffffffffffffffffffffffffffff168152602001908152602001600020848154811015156112b857fe5b90600052602060002001546117d4565b8361237890919063ffffffff16565b9150808060010191505061121b565b50919050565b600080611302834261237890919063ffffffff16565b9050600061131087876117d4565b146040805190810160405280601581526020017f546f6b656e7320616c7265616479206c6f636b656400000000000000000000008152509015156113ef576040517f08c379a00000000000000000000000000000000000000000000000000000000081526004018080602001828103825283818151815260200191508051906020019080838360005b838110156113b4578082015181840152602081019050611399565b50505050905090810190601f1680156113e15780820380516001836020036101000a031916815260200191505b509250505060405180910390fd5b5060008414156040805190810160405280601381526020017f416d6f756e742063616e206e6f742062652030000000000000000000000000008152509015156114d3576040517f08c379a00000000000000000000000000000000000000000000000000000000081526004018080602001828103825283818151815260200191508051906020019080838360005b8381101561149857808201518184015260208101905061147d565b50505050905090810190601f1680156114c55780820380516001836020036101000a031916815260200191505b509250505060405180910390fd5b506000600460008873ffffffffffffffffffffffffffffffffffffffff1673ffffffffffffffffffffffffffffffffffffffff168152602001908152602001600020600087815260200190815260200160002060000154141561159a57600360008773ffffffffffffffffffffffffffffffffffffffff1673ffffffffffffffffffffffffffffffffffffffff1681526020019081526020016000208590806001815401808255809150509060018203906000526020600020016000909192909190915055505b6115a43085611c17565b5060606040519081016040528085815260200182815260200160001515815250600460008873ffffffffffffffffffffffffffffffffffffffff1673ffffffffffffffffffffffffffffffffffffffff1681526020019081526020016000206000878152602001908152602001600020600082015181600001556020820151816001015560408201518160020160006101000a81548160ff021916908315150217905550905050848673ffffffffffffffffffffffffffffffffffffffff167fea90ef40963535482537f0689e05cb8d259e459ebd21530e826702294d0eafdd8684604051808381526020018281526020019250505060405180910390a36001915050949350505050565b600042600460008573ffffffffffffffffffffffffffffffffffffffff1673ffffffffffffffffffffffffffffffffffffffff168152602001908152602001600020600084815260200190815260200160002060010154111580156117725750600460008473ffffffffffffffffffffffffffffffffffffffff1673ffffffffffffffffffffffffffffffffffffffff168152602001908152602001600020600083815260200190815260200160002060020160009054906101000a900460ff16155b156117ce57600460008473ffffffffffffffffffffffffffffffffffffffff1673ffffffffffffffffffffffffffffffffffffffff16815260200190815260200160002060008381526020019081526020016000206000015490505b92915050565b6000600460008473ffffffffffffffffffffffffffffffffffffffff1673ffffffffffffffffffffffffffffffffffffffff168152602001908152602001600020600083815260200190815260200160002060020160009054906101000a900460ff16151561189457600460008473ffffffffffffffffffffffffffffffffffffffff1673ffffffffffffffffffffffffffffffffffffffff16815260200190815260200160002060008381526020019081526020016000206000015490505b92915050565b60008060008373ffffffffffffffffffffffffffffffffffffffff1673ffffffffffffffffffffffffffffffffffffffff168152602001908152602001600020549050919050565b6003602052816000526040600020818154811015156118fd57fe5b90600052602060002001600091509150505481565b60008061191f33856117d4565b116040805190810160405280601081526020017f4e6f20746f6b656e73206c6f636b6564000000000000000000000000000000008152509015156119fe576040517f08c379a00000000000000000000000000000000000000000000000000000000081526004018080602001828103825283818151815260200191508051906020019080838360005b838110156119c35780820151818401526020810190506119a8565b50505050905090810190601f1680156119f05780820380516001836020036101000a031916815260200191505b509250505060405180910390fd5b50611a093083611c17565b5081600460003373ffffffffffffffffffffffffffffffffffffffff1673ffffffffffffffffffffffffffffffffffffffff168152602001908152602001600020600085815260200190815260200160002060000160008282540192505081905550823373ffffffffffffffffffffffffffffffffffffffff167fea90ef40963535482537f0689e05cb8d259e459ebd21530e826702294d0eafdd600460003373ffffffffffffffffffffffffffffffffffffffff1673ffffffffffffffffffffffffffffffffffffffff168152602001908152602001600020600087815260200190815260200160002060000154600460003373ffffffffffffffffffffffffffffffffffffffff1673ffffffffffffffffffffffffffffffffffffffff168152602001908152602001600020600088815260200190815260200160002060010154604051808381526020018281526020019250505060405180910390a36001905092915050565b6000611c0d3384611c0885600160003373ffffffffffffffffffffffffffffffffffffffff1673ffffffffffffffffffffffffffffffffffffffff16815260200190815260200160002060008973ffffffffffffffffffffffffffffffffffffffff1673ffffffffffffffffffffffffffffffffffffffff1681526020019081526020016000205461235690919063ffffffff16565b612027565b6001905092915050565b6000611c2433848461218a565b6001905092915050565b600080611c3b33856117d4565b116040805190810160405280601081526020017f4e6f20746f6b656e73206c6f636b656400000000000000000000000000000000815250901515611d1a576040517f08c379a00000000000000000000000000000000000000000000000000000000081526004018080602001828103825283818151815260200191508051906020019080838360005b83811015611cdf578082015181840152602081019050611cc4565b50505050905090810190601f168015611d0c5780820380516001836020036101000a031916815260200191505b509250505060405180910390fd5b5081600460003373ffffffffffffffffffffffffffffffffffffffff1673ffffffffffffffffffffffffffffffffffffffff168152602001908152602001600020600085815260200190815260200160002060010160008282540192505081905550823373ffffffffffffffffffffffffffffffffffffffff167fea90ef40963535482537f0689e05cb8d259e459ebd21530e826702294d0eafdd600460003373ffffffffffffffffffffffffffffffffffffffff1673ffffffffffffffffffffffffffffffffffffffff168152602001908152602001600020600087815260200190815260200160002060000154600460003373ffffffffffffffffffffffffffffffffffffffff1673ffffffffffffffffffffffffffffffffffffffff168152602001908152602001600020600088815260200190815260200160002060010154604051808381526020018281526020019250505060405180910390a36001905092915050565b600080600090505b600360008473ffffffffffffffffffffffffffffffffffffffff1673ffffffffffffffffffffffffffffffffffffffff16815260200190815260200160002080549050811015611f5657611f47611f3884600360008773ffffffffffffffffffffffffffffffffffffffff1673ffffffffffffffffffffffffffffffffffffffff16815260200190815260200160002084815481101515611f2857fe5b90600052602060002001546116af565b8361237890919063ffffffff16565b91508080600101915050611e8b565b50919050565b6004602052816000526040600020602052806000526040600020600091509150508060000154908060010154908060020160009054906101000a900460ff16905083565b6000600160008473ffffffffffffffffffffffffffffffffffffffff1673ffffffffffffffffffffffffffffffffffffffff16815260200190815260200160002060008373ffffffffffffffffffffffffffffffffffffffff1673ffffffffffffffffffffffffffffffffffffffff16815260200190815260200160002054905092915050565b600073ffffffffffffffffffffffffffffffffffffffff168273ffffffffffffffffffffffffffffffffffffffff161415151561206357600080fd5b600073ffffffffffffffffffffffffffffffffffffffff168373ffffffffffffffffffffffffffffffffffffffff161415151561209f57600080fd5b80600160008573ffffffffffffffffffffffffffffffffffffffff1673ffffffffffffffffffffffffffffffffffffffff16815260200190815260200160002060008473ffffffffffffffffffffffffffffffffffffffff1673ffffffffffffffffffffffffffffffffffffffff168152602001908152602001600020819055508173ffffffffffffffffffffffffffffffffffffffff168373ffffffffffffffffffffffffffffffffffffffff167f8c5be1e5ebec7d5bd14f71427d1e84f3dd0314c0f7b2291e5b200ac8c7c3b925836040518082815260200191505060405180910390a3505050565b600073ffffffffffffffffffffffffffffffffffffffff168273ffffffffffffffffffffffffffffffffffffffff16141515156121c657600080fd5b612217816000808673ffffffffffffffffffffffffffffffffffffffff1673ffffffffffffffffffffffffffffffffffffffff1681526020019081526020016000205461235690919063ffffffff16565b6000808573ffffffffffffffffffffffffffffffffffffffff1673ffffffffffffffffffffffffffffffffffffffff168152602001908152602001600020819055506122aa816000808573ffffffffffffffffffffffffffffffffffffffff1673ffffffffffffffffffffffffffffffffffffffff1681526020019081526020016000205461237890919063ffffffff16565b6000808473ffffffffffffffffffffffffffffffffffffffff1673ffffffffffffffffffffffffffffffffffffffff168152602001908152602001600020819055508173ffffffffffffffffffffffffffffffffffffffff168373ffffffffffffffffffffffffffffffffffffffff167fddf252ad1be2c89b69c2b068fc378daa952ba7f163c4a11628f55a4df523b3ef836040518082815260200191505060405180910390a3505050565b600082821115151561236757600080fd5b600082840390508091505092915050565b600080828401905083811015151561238f57600080fd5b809150509291505056fea165627a7a72305820e0abfbddcf68ed7f4691809e4ed10cbbf12b9368197a0183705e31a99dfc2f230029",
  "source": "pragma solidity ^0.5.2;\n\nimport \"./ERC1132.sol\";\n\ncontract LockableToken is ERC1132 {\n  /**\n   * @dev constructor to mint initial tokens\n   */\n  constructor(uint256 _supply) public {\n    _mint(msg.sender, _supply);\n  }\n}",
  "sourcePath": "/Users/mailiam/Documents/Project/pygd/reborn-token/contracts/ERC1132/LockableToken.sol",
  "compiler": {
    "name": "solc",
    "version": "0.5.2+commit.1df8f40c.Emscripten.clang"
  },
  "schemaVersion": "3.0.6",
  "updatedAt": "2019-04-14T07:35:40.361Z",
  "devdoc": {
    "methods": {
      "allowance(address,address)": {
        "details": "Function to check the amount of tokens that an owner allowed to a spender.",
        "params": {
          "owner": "address The address which owns the funds.",
          "spender": "address The address which will spend the funds."
        },
        "return": "A uint256 specifying the amount of tokens still available for the spender."
      },
      "approve(address,uint256)": {
        "details": "Approve the passed address to spend the specified amount of tokens on behalf of msg.sender. Beware that changing an allowance with this method brings the risk that someone may use both the old and the new allowance by unfortunate transaction ordering. One possible solution to mitigate this race condition is to first reduce the spender's allowance to 0 and set the desired value afterwards: https://github.com/ethereum/EIPs/issues/20#issuecomment-263524729",
        "params": {
          "spender": "The address which will spend the funds.",
          "value": "The amount of tokens to be spent."
        }
      },
      "balanceOf(address)": {
        "details": "Gets the balance of the specified address.",
        "params": {
          "owner": "The address to query the balance of."
        },
        "return": "A uint256 representing the amount owned by the passed address."
      },
      "constructor": {
        "details": "constructor to mint initial tokens"
      },
      "decreaseAllowance(address,uint256)": {
        "details": "Decrease the amount of tokens that an owner allowed to a spender. approve should be called when _allowed[msg.sender][spender] == 0. To decrement allowed value is better to use this function to avoid 2 calls (and wait until the first transaction is mined) From MonolithDAO Token.sol Emits an Approval event.",
        "params": {
          "spender": "The address which will spend the funds.",
          "subtractedValue": "The amount of tokens to decrease the allowance by."
        }
      },
      "extendLock(bytes32,uint256)": {
        "details": "Extends lock for a specified reason and time",
        "params": {
          "_reason": "The reason to lock tokens",
          "_time": "Lock extension time in seconds"
        }
      },
      "getUnlockableTokens(address)": {
        "details": "Gets the unlockable tokens of a specified address",
        "params": {
          "_of": "The address to query the the unlockable token count of"
        }
      },
      "increaseAllowance(address,uint256)": {
        "details": "Increase the amount of tokens that an owner allowed to a spender. approve should be called when _allowed[msg.sender][spender] == 0. To increment allowed value is better to use this function to avoid 2 calls (and wait until the first transaction is mined) From MonolithDAO Token.sol Emits an Approval event.",
        "params": {
          "addedValue": "The amount of tokens to increase the allowance by.",
          "spender": "The address which will spend the funds."
        }
      },
      "increaseLockAmount(bytes32,uint256)": {
        "details": "Increase number of tokens locked for a specified reason",
        "params": {
          "_amount": "Number of tokens to be increased",
          "_reason": "The reason to lock tokens"
        }
      },
      "lock(bytes32,uint256,uint256)": {
        "details": "Locks a specified amount of tokens against an address,  for a specified reason and time",
        "params": {
          "_amount": "Number of tokens to be locked",
          "_reason": "The reason to lock tokens",
          "_time": "Lock time in seconds"
        }
      },
      "tokensLocked(address,bytes32)": {
        "details": "Returns tokens locked for a specified address for a  specified reason",
        "params": {
          "_of": "The address whose tokens are locked",
          "_reason": "The reason to query the lock tokens for"
        }
      },
      "tokensLockedAtTime(address,bytes32,uint256)": {
        "details": "Returns tokens locked for a specified address for a  specified reason at a specific time",
        "params": {
          "_of": "The address whose tokens are locked",
          "_reason": "The reason to query the lock tokens for",
          "_time": "The timestamp to query the lock tokens for"
        }
      },
      "tokensUnlockable(address,bytes32)": {
        "details": "Returns unlockable tokens for a specified address for a specified reason",
        "params": {
          "_of": "The address to query the the unlockable token count of",
          "_reason": "The reason to query the unlockable tokens for"
        }
      },
      "totalBalanceOf(address)": {
        "details": "Returns total tokens held by an address (locked + transferable)",
        "params": {
          "_of": "The address to query the total balance of"
        }
      },
      "totalSupply()": {
        "details": "Total number of tokens in existence"
      },
      "transfer(address,uint256)": {
        "details": "Transfer token to a specified address",
        "params": {
          "to": "The address to transfer to.",
          "value": "The amount to be transferred."
        }
      },
      "transferFrom(address,address,uint256)": {
        "details": "Transfer tokens from one address to another. Note that while this function emits an Approval event, this is not required as per the specification, and other compliant implementations may not emit the event.",
        "params": {
          "from": "address The address which you want to send tokens from",
          "to": "address The address which you want to transfer to",
          "value": "uint256 the amount of tokens to be transferred"
        }
      },
      "transferWithLock(address,bytes32,uint256,uint256)": {
        "details": "Transfers and Locks a specified amount of tokens,  for a specified reason and time",
        "params": {
          "_amount": "Number of tokens to be transfered and locked",
          "_reason": "The reason to lock tokens",
          "_time": "Lock time in seconds",
          "_to": "adress to which tokens are to be transfered"
        }
      },
      "unlock(address)": {
        "details": "Unlocks the unlockable tokens of a specified address",
        "params": {
          "_of": "Address of user, claiming back unlockable tokens"
        }
      }
    }
  },
  "userdoc": {
    "methods": {}
  }
}