{
  "contractName": "RebornDollar",
  "abi": [
    {
      "constant": true,
      "inputs": [],
      "name": "name",
      "outputs": [
        {
          "name": "",
          "type": "string"
        }
      ],
      "payable": false,
      "stateMutability": "view",
      "type": "function",
      "signature": "0x06fdde03"
    },
    {
      "constant": false,
      "inputs": [
        {
          "name": "spender",
          "type": "address"
        },
        {
          "name": "value",
          "type": "uint256"
        }
      ],
      "name": "approve",
      "outputs": [
        {
          "name": "",
          "type": "bool"
        }
      ],
      "payable": false,
      "stateMutability": "nonpayable",
      "type": "function",
      "signature": "0x095ea7b3"
    },
    {
      "constant": true,
      "inputs": [
        {
          "name": "_of",
          "type": "address"
        },
        {
          "name": "_reason",
          "type": "bytes32"
        },
        {
          "name": "_time",
          "type": "uint256"
        }
      ],
      "name": "tokensLockedAtTime",
      "outputs": [
        {
          "name": "amount",
          "type": "uint256"
        }
      ],
      "payable": false,
      "stateMutability": "view",
      "type": "function",
      "signature": "0x179e91f1"
    },
    {
      "constant": true,
      "inputs": [],
      "name": "totalSupply",
      "outputs": [
        {
          "name": "",
          "type": "uint256"
        }
      ],
      "payable": false,
      "stateMutability": "view",
      "type": "function",
      "signature": "0x18160ddd"
    },
    {
      "constant": false,
      "inputs": [
        {
          "name": "from",
          "type": "address"
        },
        {
          "name": "to",
          "type": "address"
        },
        {
          "name": "value",
          "type": "uint256"
        }
      ],
      "name": "transferFrom",
      "outputs": [
        {
          "name": "",
          "type": "bool"
        }
      ],
      "payable": false,
      "stateMutability": "nonpayable",
      "type": "function",
      "signature": "0x23b872dd"
    },
    {
      "constant": true,
      "inputs": [],
      "name": "DECIMALS",
      "outputs": [
        {
          "name": "",
          "type": "uint8"
        }
      ],
      "payable": false,
      "stateMutability": "view",
      "type": "function",
      "signature": "0x2e0f2625"
    },
    {
      "constant": false,
      "inputs": [
        {
          "name": "_reason",
          "type": "bytes32"
        },
        {
          "name": "_amount",
          "type": "uint256"
        },
        {
          "name": "_time",
          "type": "uint256"
        }
      ],
      "name": "lock",
      "outputs": [
        {
          "name": "",
          "type": "bool"
        }
      ],
      "payable": false,
      "stateMutability": "nonpayable",
      "type": "function",
      "signature": "0x2e82aaf2"
    },
    {
      "constant": false,
      "inputs": [
        {
          "name": "_of",
          "type": "address"
        }
      ],
      "name": "unlock",
      "outputs": [
        {
          "name": "unlockableTokens",
          "type": "uint256"
        }
      ],
      "payable": false,
      "stateMutability": "nonpayable",
      "type": "function",
      "signature": "0x2f6c493c"
    },
    {
      "constant": true,
      "inputs": [],
      "name": "INITIAL_SUPPLY",
      "outputs": [
        {
          "name": "",
          "type": "uint256"
        }
      ],
      "payable": false,
      "stateMutability": "view",
      "type": "function",
      "signature": "0x2ff2e9dc"
    },
    {
      "constant": true,
      "inputs": [],
      "name": "decimals",
      "outputs": [
        {
          "name": "",
          "type": "uint8"
        }
      ],
      "payable": false,
      "stateMutability": "view",
      "type": "function",
      "signature": "0x313ce567"
    },
    {
      "constant": false,
      "inputs": [
        {
          "name": "spender",
          "type": "address"
        },
        {
          "name": "addedValue",
          "type": "uint256"
        }
      ],
      "name": "increaseAllowance",
      "outputs": [
        {
          "name": "",
          "type": "bool"
        }
      ],
      "payable": false,
      "stateMutability": "nonpayable",
      "type": "function",
      "signature": "0x39509351"
    },
    {
      "constant": false,
      "inputs": [
        {
          "name": "to",
          "type": "address"
        },
        {
          "name": "value",
          "type": "uint256"
        }
      ],
      "name": "mint",
      "outputs": [
        {
          "name": "",
          "type": "bool"
        }
      ],
      "payable": false,
      "stateMutability": "nonpayable",
      "type": "function",
      "signature": "0x40c10f19"
    },
    {
      "constant": false,
      "inputs": [
        {
          "name": "value",
          "type": "uint256"
        }
      ],
      "name": "burn",
      "outputs": [],
      "payable": false,
      "stateMutability": "nonpayable",
      "type": "function",
      "signature": "0x42966c68"
    },
    {
      "constant": true,
      "inputs": [
        {
          "name": "_of",
          "type": "address"
        }
      ],
      "name": "totalBalanceOf",
      "outputs": [
        {
          "name": "amount",
          "type": "uint256"
        }
      ],
      "payable": false,
      "stateMutability": "view",
      "type": "function",
      "signature": "0x4b0ee02a"
    },
    {
      "constant": false,
      "inputs": [
        {
          "name": "_to",
          "type": "address"
        },
        {
          "name": "_reason",
          "type": "bytes32"
        },
        {
          "name": "_amount",
          "type": "uint256"
        },
        {
          "name": "_time",
          "type": "uint256"
        }
      ],
      "name": "transferWithLock",
      "outputs": [
        {
          "name": "",
          "type": "bool"
        }
      ],
      "payable": false,
      "stateMutability": "nonpayable",
      "type": "function",
      "signature": "0x4cb5465f"
    },
    {
      "constant": true,
      "inputs": [
        {
          "name": "_of",
          "type": "address"
        },
        {
          "name": "_reason",
          "type": "bytes32"
        }
      ],
      "name": "tokensUnlockable",
      "outputs": [
        {
          "name": "amount",
          "type": "uint256"
        }
      ],
      "payable": false,
      "stateMutability": "view",
      "type": "function",
      "signature": "0x5294d0e8"
    },
    {
      "constant": true,
      "inputs": [
        {
          "name": "_of",
          "type": "address"
        },
        {
          "name": "_reason",
          "type": "bytes32"
        }
      ],
      "name": "tokensLocked",
      "outputs": [
        {
          "name": "amount",
          "type": "uint256"
        }
      ],
      "payable": false,
      "stateMutability": "view",
      "type": "function",
      "signature": "0x5ca48d8c"
    },
    {
      "constant": true,
      "inputs": [
        {
          "name": "owner",
          "type": "address"
        }
      ],
      "name": "balanceOf",
      "outputs": [
        {
          "name": "",
          "type": "uint256"
        }
      ],
      "payable": false,
      "stateMutability": "view",
      "type": "function",
      "signature": "0x70a08231"
    },
    {
      "constant": true,
      "inputs": [
        {
          "name": "",
          "type": "address"
        },
        {
          "name": "",
          "type": "uint256"
        }
      ],
      "name": "lockReason",
      "outputs": [
        {
          "name": "",
          "type": "bytes32"
        }
      ],
      "payable": false,
      "stateMutability": "view",
      "type": "function",
      "signature": "0x71d66f00"
    },
    {
      "constant": false,
      "inputs": [
        {
          "name": "from",
          "type": "address"
        },
        {
          "name": "value",
          "type": "uint256"
        }
      ],
      "name": "burnFrom",
      "outputs": [],
      "payable": false,
      "stateMutability": "nonpayable",
      "type": "function",
      "signature": "0x79cc6790"
    },
    {
      "constant": false,
      "inputs": [
        {
          "name": "_reason",
          "type": "bytes32"
        },
        {
          "name": "_amount",
          "type": "uint256"
        }
      ],
      "name": "increaseLockAmount",
      "outputs": [
        {
          "name": "",
          "type": "bool"
        }
      ],
      "payable": false,
      "stateMutability": "nonpayable",
      "type": "function",
      "signature": "0x81fc4d90"
    },
    {
      "constant": true,
      "inputs": [],
      "name": "symbol",
      "outputs": [
        {
          "name": "",
          "type": "string"
        }
      ],
      "payable": false,
      "stateMutability": "view",
      "type": "function",
      "signature": "0x95d89b41"
    },
    {
      "constant": false,
      "inputs": [
        {
          "name": "account",
          "type": "address"
        }
      ],
      "name": "addMinter",
      "outputs": [],
      "payable": false,
      "stateMutability": "nonpayable",
      "type": "function",
      "signature": "0x983b2d56"
    },
    {
      "constant": false,
      "inputs": [],
      "name": "renounceMinter",
      "outputs": [],
      "payable": false,
      "stateMutability": "nonpayable",
      "type": "function",
      "signature": "0x98650275"
    },
    {
      "constant": true,
      "inputs": [],
      "name": "NAME",
      "outputs": [
        {
          "name": "",
          "type": "string"
        }
      ],
      "payable": false,
      "stateMutability": "view",
      "type": "function",
      "signature": "0xa3f4df7e"
    },
    {
      "constant": false,
      "inputs": [
        {
          "name": "spender",
          "type": "address"
        },
        {
          "name": "subtractedValue",
          "type": "uint256"
        }
      ],
      "name": "decreaseAllowance",
      "outputs": [
        {
          "name": "",
          "type": "bool"
        }
      ],
      "payable": false,
      "stateMutability": "nonpayable",
      "type": "function",
      "signature": "0xa457c2d7"
    },
    {
      "constant": false,
      "inputs": [
        {
          "name": "to",
          "type": "address"
        },
        {
          "name": "value",
          "type": "uint256"
        }
      ],
      "name": "transfer",
      "outputs": [
        {
          "name": "",
          "type": "bool"
        }
      ],
      "payable": false,
      "stateMutability": "nonpayable",
      "type": "function",
      "signature": "0xa9059cbb"
    },
    {
      "constant": false,
      "inputs": [
        {
          "name": "_reason",
          "type": "bytes32"
        },
        {
          "name": "_time",
          "type": "uint256"
        }
      ],
      "name": "extendLock",
      "outputs": [
        {
          "name": "",
          "type": "bool"
        }
      ],
      "payable": false,
      "stateMutability": "nonpayable",
      "type": "function",
      "signature": "0xa9dab167"
    },
    {
      "constant": true,
      "inputs": [
        {
          "name": "account",
          "type": "address"
        }
      ],
      "name": "isMinter",
      "outputs": [
        {
          "name": "",
          "type": "bool"
        }
      ],
      "payable": false,
      "stateMutability": "view",
      "type": "function",
      "signature": "0xaa271e1a"
    },
    {
      "constant": true,
      "inputs": [
        {
          "name": "_of",
          "type": "address"
        }
      ],
      "name": "getUnlockableTokens",
      "outputs": [
        {
          "name": "unlockableTokens",
          "type": "uint256"
        }
      ],
      "payable": false,
      "stateMutability": "view",
      "type": "function",
      "signature": "0xab4a2eb3"
    },
    {
      "constant": true,
      "inputs": [
        {
          "name": "",
          "type": "address"
        },
        {
          "name": "",
          "type": "bytes32"
        }
      ],
      "name": "locked",
      "outputs": [
        {
          "name": "amount",
          "type": "uint256"
        },
        {
          "name": "validity",
          "type": "uint256"
        },
        {
          "name": "claimed",
          "type": "bool"
        }
      ],
      "payable": false,
      "stateMutability": "view",
      "type": "function",
      "signature": "0xd71be8db"
    },
    {
      "constant": true,
      "inputs": [
        {
          "name": "owner",
          "type": "address"
        },
        {
          "name": "spender",
          "type": "address"
        }
      ],
      "name": "allowance",
      "outputs": [
        {
          "name": "",
          "type": "uint256"
        }
      ],
      "payable": false,
      "stateMutability": "view",
      "type": "function",
      "signature": "0xdd62ed3e"
    },
    {
      "constant": true,
      "inputs": [],
      "name": "SYMBOL",
      "outputs": [
        {
          "name": "",
          "type": "string"
        }
      ],
      "payable": false,
      "stateMutability": "view",
      "type": "function",
      "signature": "0xf76f8d78"
    },
    {
      "inputs": [],
      "payable": false,
      "stateMutability": "nonpayable",
      "type": "constructor",
      "signature": "constructor"
    },
    {
      "anonymous": false,
      "inputs": [
        {
          "indexed": true,
          "name": "account",
          "type": "address"
        }
      ],
      "name": "MinterAdded",
      "type": "event",
      "signature": "0x6ae172837ea30b801fbfcdd4108aa1d5bf8ff775444fd70256b44e6bf3dfc3f6"
    },
    {
      "anonymous": false,
      "inputs": [
        {
          "indexed": true,
          "name": "account",
          "type": "address"
        }
      ],
      "name": "MinterRemoved",
      "type": "event",
      "signature": "0xe94479a9f7e1952cc78f2d6baab678adc1b772d936c6583def489e524cb66692"
    },
    {
      "anonymous": false,
      "inputs": [
        {
          "indexed": true,
          "name": "_of",
          "type": "address"
        },
        {
          "indexed": true,
          "name": "_reason",
          "type": "bytes32"
        },
        {
          "indexed": false,
          "name": "_amount",
          "type": "uint256"
        },
        {
          "indexed": false,
          "name": "_validity",
          "type": "uint256"
        }
      ],
      "name": "Locked",
      "type": "event",
      "signature": "0xea90ef40963535482537f0689e05cb8d259e459ebd21530e826702294d0eafdd"
    },
    {
      "anonymous": false,
      "inputs": [
        {
          "indexed": true,
          "name": "_of",
          "type": "address"
        },
        {
          "indexed": true,
          "name": "_reason",
          "type": "bytes32"
        },
        {
          "indexed": false,
          "name": "_amount",
          "type": "uint256"
        }
      ],
      "name": "Unlocked",
      "type": "event",
      "signature": "0x11f87fd5adcd05786919b8b868f59a70d78ae4eb6f305c5927f9c5b1659841a4"
    },
    {
      "anonymous": false,
      "inputs": [
        {
          "indexed": true,
          "name": "from",
          "type": "address"
        },
        {
          "indexed": true,
          "name": "to",
          "type": "address"
        },
        {
          "indexed": false,
          "name": "value",
          "type": "uint256"
        }
      ],
      "name": "Transfer",
      "type": "event",
      "signature": "0xddf252ad1be2c89b69c2b068fc378daa952ba7f163c4a11628f55a4df523b3ef"
    },
    {
      "anonymous": false,
      "inputs": [
        {
          "indexed": true,
          "name": "owner",
          "type": "address"
        },
        {
          "indexed": true,
          "name": "spender",
          "type": "address"
        },
        {
          "indexed": false,
          "name": "value",
          "type": "uint256"
        }
      ],
      "name": "Approval",
      "type": "event",
      "signature": "0x8c5be1e5ebec7d5bd14f71427d1e84f3dd0314c0f7b2291e5b200ac8c7c3b925"
    }
  ],
  "bytecode": "0x60806040523480156200001157600080fd5b506040805190810160405280600d81526020017f5265626f726e20446f6c6c6172000000000000000000000000000000000000008152506040805190810160405280600481526020017f5245424400000000000000000000000000000000000000000000000000000000815250601282600590805190602001906200009892919062000472565b508160069080519060200190620000b192919062000472565b5080600760006101000a81548160ff021916908360ff160217905550505050620000ea3362000119640100000000026401000000009004565b6200011333601260ff16600a0a6402540be4000262000183640100000000026401000000009004565b62000521565b6200013d816008620002f86401000000000262002f6e179091906401000000009004565b8073ffffffffffffffffffffffffffffffffffffffff167f6ae172837ea30b801fbfcdd4108aa1d5bf8ff775444fd70256b44e6bf3dfc3f660405160405180910390a250565b600073ffffffffffffffffffffffffffffffffffffffff168273ffffffffffffffffffffffffffffffffffffffff1614151515620001c057600080fd5b620001e581600254620003bb6401000000000262002ab6179091906401000000009004565b6002819055506200024c816000808573ffffffffffffffffffffffffffffffffffffffff1673ffffffffffffffffffffffffffffffffffffffff16815260200190815260200160002054620003bb6401000000000262002ab6179091906401000000009004565b6000808473ffffffffffffffffffffffffffffffffffffffff1673ffffffffffffffffffffffffffffffffffffffff168152602001908152602001600020819055508173ffffffffffffffffffffffffffffffffffffffff16600073ffffffffffffffffffffffffffffffffffffffff167fddf252ad1be2c89b69c2b068fc378daa952ba7f163c4a11628f55a4df523b3ef836040518082815260200191505060405180910390a35050565b600073ffffffffffffffffffffffffffffffffffffffff168173ffffffffffffffffffffffffffffffffffffffff16141515156200033557600080fd5b620003508282620003dd640100000000026401000000009004565b1515156200035d57600080fd5b60018260000160008373ffffffffffffffffffffffffffffffffffffffff1673ffffffffffffffffffffffffffffffffffffffff16815260200190815260200160002060006101000a81548160ff0219169083151502179055505050565b6000808284019050838110151515620003d357600080fd5b8091505092915050565b60008073ffffffffffffffffffffffffffffffffffffffff168273ffffffffffffffffffffffffffffffffffffffff16141515156200041b57600080fd5b8260000160008373ffffffffffffffffffffffffffffffffffffffff1673ffffffffffffffffffffffffffffffffffffffff16815260200190815260200160002060009054906101000a900460ff16905092915050565b828054600181600116156101000203166002900490600052602060002090601f016020900481019282601f10620004b557805160ff1916838001178555620004e6565b82800160010185558215620004e6579182015b82811115620004e5578251825591602001919060010190620004c8565b5b509050620004f59190620004f9565b5090565b6200051e91905b808211156200051a57600081600090555060010162000500565b5090565b90565b6130f980620005316000396000f3fe608060405234801561001057600080fd5b5060043610610218576000357c0100000000000000000000000000000000000000000000000000000000900480635ca48d8c11610137578063a3f4df7e116100ca578063aa271e1a11610099578063aa271e1a14610b86578063ab4a2eb314610be2578063d71be8db14610c3a578063dd62ed3e14610cae578063f76f8d7814610d2657610218565b8063a3f4df7e146109e7578063a457c2d714610a6a578063a9059cbb14610ad0578063a9dab16714610b3657610218565b806381fc4d901161010657806381fc4d90146108c657806395d89b4114610916578063983b2d561461099957806398650275146109dd57610218565b80635ca48d8c1461075c57806370a08231146107be57806371d66f001461081657806379cc67901461087857610218565b80632ff2e9dc116101af57806342966c681161017e57806342966c68146105fa5780634b0ee02a146106285780634cb5465f146106805780635294d0e8146106fa57610218565b80632ff2e9dc146104ec578063313ce5671461050a578063395093511461052e57806340c10f191461059457610218565b806323b872dd116101eb57806323b872dd146103905780632e0f2625146104165780632e82aaf21461043a5780632f6c493c1461049457610218565b806306fdde031461021d578063095ea7b3146102a0578063179e91f11461030657806318160ddd14610372575b600080fd5b610225610da9565b6040518080602001828103825283818151815260200191508051906020019080838360005b8381101561026557808201518184015260208101905061024a565b50505050905090810190601f1680156102925780820380516001836020036101000a031916815260200191505b509250505060405180910390f35b6102ec600480360360408110156102b657600080fd5b81019080803573ffffffffffffffffffffffffffffffffffffffff16906020019092919080359060200190929190505050610e4b565b604051808215151515815260200191505060405180910390f35b61035c6004803603606081101561031c57600080fd5b81019080803573ffffffffffffffffffffffffffffffffffffffff1690602001909291908035906020019092919080359060200190929190505050610e62565b6040518082815260200191505060405180910390f35b61037a610f1d565b6040518082815260200191505060405180910390f35b6103fc600480360360608110156103a657600080fd5b81019080803573ffffffffffffffffffffffffffffffffffffffff169060200190929190803573ffffffffffffffffffffffffffffffffffffffff16906020019092919080359060200190929190505050610f27565b604051808215151515815260200191505060405180910390f35b61041e610fd8565b604051808260ff1660ff16815260200191505060405180910390f35b61047a6004803603606081101561045057600080fd5b81019080803590602001909291908035906020019092919080359060200190929190505050610fdd565b604051808215151515815260200191505060405180910390f35b6104d6600480360360208110156104aa57600080fd5b81019080803573ffffffffffffffffffffffffffffffffffffffff16906020019092919050505061139f565b6040518082815260200191505060405180910390f35b6104f46116d7565b6040518082815260200191505060405180910390f35b6105126116e9565b604051808260ff1660ff16815260200191505060405180910390f35b61057a6004803603604081101561054457600080fd5b81019080803573ffffffffffffffffffffffffffffffffffffffff16906020019092919080359060200190929190505050611700565b604051808215151515815260200191505060405180910390f35b6105e0600480360360408110156105aa57600080fd5b81019080803573ffffffffffffffffffffffffffffffffffffffff169060200190929190803590602001909291905050506117a5565b604051808215151515815260200191505060405180910390f35b6106266004803603602081101561061057600080fd5b81019080803590602001909291905050506117cf565b005b61066a6004803603602081101561063e57600080fd5b81019080803573ffffffffffffffffffffffffffffffffffffffff1690602001909291905050506117dc565b6040518082815260200191505060405180910390f35b6106e06004803603608081101561069657600080fd5b81019080803573ffffffffffffffffffffffffffffffffffffffff1690602001909291908035906020019092919080359060200190929190803590602001909291905050506118c0565b604051808215151515815260200191505060405180910390f35b6107466004803603604081101561071057600080fd5b81019080803573ffffffffffffffffffffffffffffffffffffffff16906020019092919080359060200190929190505050611c83565b6040518082815260200191505060405180910390f35b6107a86004803603604081101561077257600080fd5b81019080803573ffffffffffffffffffffffffffffffffffffffff16906020019092919080359060200190929190505050611da8565b6040518082815260200191505060405180910390f35b610800600480360360208110156107d457600080fd5b81019080803573ffffffffffffffffffffffffffffffffffffffff169060200190929190505050611e6e565b6040518082815260200191505060405180910390f35b6108626004803603604081101561082c57600080fd5b81019080803573ffffffffffffffffffffffffffffffffffffffff16906020019092919080359060200190929190505050611eb6565b6040518082815260200191505060405180910390f35b6108c46004803603604081101561088e57600080fd5b81019080803573ffffffffffffffffffffffffffffffffffffffff16906020019092919080359060200190929190505050611ee6565b005b6108fc600480360360408110156108dc57600080fd5b810190808035906020019092919080359060200190929190505050611ef4565b604051808215151515815260200191505060405180910390f35b61091e612154565b6040518080602001828103825283818151815260200191508051906020019080838360005b8381101561095e578082015181840152602081019050610943565b50505050905090810190601f16801561098b5780820380516001836020036101000a031916815260200191505b509250505060405180910390f35b6109db600480360360208110156109af57600080fd5b81019080803573ffffffffffffffffffffffffffffffffffffffff1690602001909291905050506121f6565b005b6109e5612216565b005b6109ef612221565b6040518080602001828103825283818151815260200191508051906020019080838360005b83811015610a2f578082015181840152602081019050610a14565b50505050905090810190601f168015610a5c5780820380516001836020036101000a031916815260200191505b509250505060405180910390f35b610ab660048036036040811015610a8057600080fd5b81019080803573ffffffffffffffffffffffffffffffffffffffff1690602001909291908035906020019092919050505061225a565b604051808215151515815260200191505060405180910390f35b610b1c60048036036040811015610ae657600080fd5b81019080803573ffffffffffffffffffffffffffffffffffffffff169060200190929190803590602001909291905050506122ff565b604051808215151515815260200191505060405180910390f35b610b6c60048036036040811015610b4c57600080fd5b810190808035906020019092919080359060200190929190505050612316565b604051808215151515815260200191505060405180910390f35b610bc860048036036020811015610b9c57600080fd5b81019080803573ffffffffffffffffffffffffffffffffffffffff16906020019092919050505061256b565b604051808215151515815260200191505060405180910390f35b610c2460048036036020811015610bf857600080fd5b81019080803573ffffffffffffffffffffffffffffffffffffffff169060200190929190505050612588565b6040518082815260200191505060405180910390f35b610c8660048036036040811015610c5057600080fd5b81019080803573ffffffffffffffffffffffffffffffffffffffff16906020019092919080359060200190929190505050612661565b6040518084815260200183815260200182151515158152602001935050505060405180910390f35b610d1060048036036040811015610cc457600080fd5b81019080803573ffffffffffffffffffffffffffffffffffffffff169060200190929190803573ffffffffffffffffffffffffffffffffffffffff1690602001909291905050506126a5565b6040518082815260200191505060405180910390f35b610d2e61272c565b6040518080602001828103825283818151815260200191508051906020019080838360005b83811015610d6e578082015181840152602081019050610d53565b50505050905090810190601f168015610d9b5780820380516001836020036101000a031916815260200191505b509250505060405180910390f35b606060058054600181600116156101000203166002900480601f016020809104026020016040519081016040528092919081815260200182805460018160011615610100020316600290048015610e415780601f10610e1657610100808354040283529160200191610e41565b820191906000526020600020905b815481529060010190602001808311610e2457829003601f168201915b5050505050905090565b6000610e58338484612765565b6001905092915050565b600081600460008673ffffffffffffffffffffffffffffffffffffffff1673ffffffffffffffffffffffffffffffffffffffff1681526020019081526020016000206000858152602001908152602001600020600101541115610f1657600460008573ffffffffffffffffffffffffffffffffffffffff1673ffffffffffffffffffffffffffffffffffffffff16815260200190815260200160002060008481526020019081526020016000206000015490505b9392505050565b6000600254905090565b6000610f348484846128c8565b610fcd8433610fc885600160008a73ffffffffffffffffffffffffffffffffffffffff1673ffffffffffffffffffffffffffffffffffffffff16815260200190815260200160002060003373ffffffffffffffffffffffffffffffffffffffff1673ffffffffffffffffffffffffffffffffffffffff16815260200190815260200160002054612a9490919063ffffffff16565b612765565b600190509392505050565b601281565b600080610ff38342612ab690919063ffffffff16565b905060006110013387611da8565b146040805190810160405280601581526020017f546f6b656e7320616c7265616479206c6f636b656400000000000000000000008152509015156110e0576040517f08c379a00000000000000000000000000000000000000000000000000000000081526004018080602001828103825283818151815260200191508051906020019080838360005b838110156110a557808201518184015260208101905061108a565b50505050905090810190601f1680156110d25780820380516001836020036101000a031916815260200191505b509250505060405180910390fd5b5060008414156040805190810160405280601381526020017f416d6f756e742063616e206e6f742062652030000000000000000000000000008152509015156111c4576040517f08c379a00000000000000000000000000000000000000000000000000000000081526004018080602001828103825283818151815260200191508051906020019080838360005b8381101561118957808201518184015260208101905061116e565b50505050905090810190601f1680156111b65780820380516001836020036101000a031916815260200191505b509250505060405180910390fd5b506000600460003373ffffffffffffffffffffffffffffffffffffffff1673ffffffffffffffffffffffffffffffffffffffff168152602001908152602001600020600087815260200190815260200160002060000154141561128b57600360003373ffffffffffffffffffffffffffffffffffffffff1673ffffffffffffffffffffffffffffffffffffffff1681526020019081526020016000208590806001815401808255809150509060018203906000526020600020016000909192909190915055505b61129530856122ff565b5060606040519081016040528085815260200182815260200160001515815250600460003373ffffffffffffffffffffffffffffffffffffffff1673ffffffffffffffffffffffffffffffffffffffff1681526020019081526020016000206000878152602001908152602001600020600082015181600001556020820151816001015560408201518160020160006101000a81548160ff021916908315150217905550905050843373ffffffffffffffffffffffffffffffffffffffff167fea90ef40963535482537f0689e05cb8d259e459ebd21530e826702294d0eafdd8684604051808381526020018281526020019250505060405180910390a360019150509392505050565b60008060008090505b600360008573ffffffffffffffffffffffffffffffffffffffff1673ffffffffffffffffffffffffffffffffffffffff168152602001908152602001600020805490508110156115e75761145284600360008773ffffffffffffffffffffffffffffffffffffffff1673ffffffffffffffffffffffffffffffffffffffff1681526020019081526020016000208381548110151561144257fe5b9060005260206000200154611c83565b915060008211156115da576114708284612ab690919063ffffffff16565b92506001600460008673ffffffffffffffffffffffffffffffffffffffff1673ffffffffffffffffffffffffffffffffffffffff1681526020019081526020016000206000600360008873ffffffffffffffffffffffffffffffffffffffff1673ffffffffffffffffffffffffffffffffffffffff1681526020019081526020016000208481548110151561150157fe5b9060005260206000200154815260200190815260200160002060020160006101000a81548160ff021916908315150217905550600360008573ffffffffffffffffffffffffffffffffffffffff1673ffffffffffffffffffffffffffffffffffffffff1681526020019081526020016000208181548110151561158057fe5b90600052602060002001548473ffffffffffffffffffffffffffffffffffffffff167f11f87fd5adcd05786919b8b868f59a70d78ae4eb6f305c5927f9c5b1659841a4846040518082815260200191505060405180910390a35b80806001019150506113a8565b5060008211156116d1573073ffffffffffffffffffffffffffffffffffffffff1663a9059cbb84846040518363ffffffff167c0100000000000000000000000000000000000000000000000000000000028152600401808373ffffffffffffffffffffffffffffffffffffffff1673ffffffffffffffffffffffffffffffffffffffff16815260200182815260200192505050602060405180830381600087803b15801561169457600080fd5b505af11580156116a8573d6000803e3d6000fd5b505050506040513d60208110156116be57600080fd5b8101908080519060200190929190505050505b50919050565b601260ff16600a0a6402540be4000281565b6000600760009054906101000a900460ff16905090565b600061179b338461179685600160003373ffffffffffffffffffffffffffffffffffffffff1673ffffffffffffffffffffffffffffffffffffffff16815260200190815260200160002060008973ffffffffffffffffffffffffffffffffffffffff1673ffffffffffffffffffffffffffffffffffffffff16815260200190815260200160002054612ab690919063ffffffff16565b612765565b6001905092915050565b60006117b03361256b565b15156117bb57600080fd5b6117c58383612ad7565b6001905092915050565b6117d93382612c2b565b50565b60006117e782611e6e565b905060008090505b600360008473ffffffffffffffffffffffffffffffffffffffff1673ffffffffffffffffffffffffffffffffffffffff168152602001908152602001600020805490508110156118ba576118ab61189c84600360008773ffffffffffffffffffffffffffffffffffffffff1673ffffffffffffffffffffffffffffffffffffffff1681526020019081526020016000208481548110151561188c57fe5b9060005260206000200154611da8565b83612ab690919063ffffffff16565b915080806001019150506117ef565b50919050565b6000806118d68342612ab690919063ffffffff16565b905060006118e48787611da8565b146040805190810160405280601581526020017f546f6b656e7320616c7265616479206c6f636b656400000000000000000000008152509015156119c3576040517f08c379a00000000000000000000000000000000000000000000000000000000081526004018080602001828103825283818151815260200191508051906020019080838360005b8381101561198857808201518184015260208101905061196d565b50505050905090810190601f1680156119b55780820380516001836020036101000a031916815260200191505b509250505060405180910390fd5b5060008414156040805190810160405280601381526020017f416d6f756e742063616e206e6f74206265203000000000000000000000000000815250901515611aa7576040517f08c379a00000000000000000000000000000000000000000000000000000000081526004018080602001828103825283818151815260200191508051906020019080838360005b83811015611a6c578082015181840152602081019050611a51565b50505050905090810190601f168015611a995780820380516001836020036101000a031916815260200191505b509250505060405180910390fd5b506000600460008873ffffffffffffffffffffffffffffffffffffffff1673ffffffffffffffffffffffffffffffffffffffff1681526020019081526020016000206000878152602001908152602001600020600001541415611b6e57600360008773ffffffffffffffffffffffffffffffffffffffff1673ffffffffffffffffffffffffffffffffffffffff1681526020019081526020016000208590806001815401808255809150509060018203906000526020600020016000909192909190915055505b611b7830856122ff565b5060606040519081016040528085815260200182815260200160001515815250600460008873ffffffffffffffffffffffffffffffffffffffff1673ffffffffffffffffffffffffffffffffffffffff1681526020019081526020016000206000878152602001908152602001600020600082015181600001556020820151816001015560408201518160020160006101000a81548160ff021916908315150217905550905050848673ffffffffffffffffffffffffffffffffffffffff167fea90ef40963535482537f0689e05cb8d259e459ebd21530e826702294d0eafdd8684604051808381526020018281526020019250505060405180910390a36001915050949350505050565b600042600460008573ffffffffffffffffffffffffffffffffffffffff1673ffffffffffffffffffffffffffffffffffffffff16815260200190815260200160002060008481526020019081526020016000206001015411158015611d465750600460008473ffffffffffffffffffffffffffffffffffffffff1673ffffffffffffffffffffffffffffffffffffffff168152602001908152602001600020600083815260200190815260200160002060020160009054906101000a900460ff16155b15611da257600460008473ffffffffffffffffffffffffffffffffffffffff1673ffffffffffffffffffffffffffffffffffffffff16815260200190815260200160002060008381526020019081526020016000206000015490505b92915050565b6000600460008473ffffffffffffffffffffffffffffffffffffffff1673ffffffffffffffffffffffffffffffffffffffff168152602001908152602001600020600083815260200190815260200160002060020160009054906101000a900460ff161515611e6857600460008473ffffffffffffffffffffffffffffffffffffffff1673ffffffffffffffffffffffffffffffffffffffff16815260200190815260200160002060008381526020019081526020016000206000015490505b92915050565b60008060008373ffffffffffffffffffffffffffffffffffffffff1673ffffffffffffffffffffffffffffffffffffffff168152602001908152602001600020549050919050565b600360205281600052604060002081815481101515611ed157fe5b90600052602060002001600091509150505481565b611ef08282612d7f565b5050565b600080611f013385611da8565b116040805190810160405280601081526020017f4e6f20746f6b656e73206c6f636b656400000000000000000000000000000000815250901515611fe0576040517f08c379a00000000000000000000000000000000000000000000000000000000081526004018080602001828103825283818151815260200191508051906020019080838360005b83811015611fa5578082015181840152602081019050611f8a565b50505050905090810190601f168015611fd25780820380516001836020036101000a031916815260200191505b509250505060405180910390fd5b50611feb30836122ff565b5081600460003373ffffffffffffffffffffffffffffffffffffffff1673ffffffffffffffffffffffffffffffffffffffff168152602001908152602001600020600085815260200190815260200160002060000160008282540192505081905550823373ffffffffffffffffffffffffffffffffffffffff167fea90ef40963535482537f0689e05cb8d259e459ebd21530e826702294d0eafdd600460003373ffffffffffffffffffffffffffffffffffffffff1673ffffffffffffffffffffffffffffffffffffffff168152602001908152602001600020600087815260200190815260200160002060000154600460003373ffffffffffffffffffffffffffffffffffffffff1673ffffffffffffffffffffffffffffffffffffffff168152602001908152602001600020600088815260200190815260200160002060010154604051808381526020018281526020019250505060405180910390a36001905092915050565b606060068054600181600116156101000203166002900480601f0160208091040260200160405190810160405280929190818152602001828054600181600116156101000203166002900480156121ec5780601f106121c1576101008083540402835291602001916121ec565b820191906000526020600020905b8154815290600101906020018083116121cf57829003601f168201915b5050505050905090565b6121ff3361256b565b151561220a57600080fd5b61221381612e26565b50565b61221f33612e80565b565b6040805190810160405280600d81526020017f5265626f726e20446f6c6c61720000000000000000000000000000000000000081525081565b60006122f533846122f085600160003373ffffffffffffffffffffffffffffffffffffffff1673ffffffffffffffffffffffffffffffffffffffff16815260200190815260200160002060008973ffffffffffffffffffffffffffffffffffffffff1673ffffffffffffffffffffffffffffffffffffffff16815260200190815260200160002054612a9490919063ffffffff16565b612765565b6001905092915050565b600061230c3384846128c8565b6001905092915050565b6000806123233385611da8565b116040805190810160405280601081526020017f4e6f20746f6b656e73206c6f636b656400000000000000000000000000000000815250901515612402576040517f08c379a00000000000000000000000000000000000000000000000000000000081526004018080602001828103825283818151815260200191508051906020019080838360005b838110156123c75780820151818401526020810190506123ac565b50505050905090810190601f1680156123f45780820380516001836020036101000a031916815260200191505b509250505060405180910390fd5b5081600460003373ffffffffffffffffffffffffffffffffffffffff1673ffffffffffffffffffffffffffffffffffffffff168152602001908152602001600020600085815260200190815260200160002060010160008282540192505081905550823373ffffffffffffffffffffffffffffffffffffffff167fea90ef40963535482537f0689e05cb8d259e459ebd21530e826702294d0eafdd600460003373ffffffffffffffffffffffffffffffffffffffff1673ffffffffffffffffffffffffffffffffffffffff168152602001908152602001600020600087815260200190815260200160002060000154600460003373ffffffffffffffffffffffffffffffffffffffff1673ffffffffffffffffffffffffffffffffffffffff168152602001908152602001600020600088815260200190815260200160002060010154604051808381526020018281526020019250505060405180910390a36001905092915050565b6000612581826008612eda90919063ffffffff16565b9050919050565b600080600090505b600360008473ffffffffffffffffffffffffffffffffffffffff1673ffffffffffffffffffffffffffffffffffffffff1681526020019081526020016000208054905081101561265b5761264c61263d84600360008773ffffffffffffffffffffffffffffffffffffffff1673ffffffffffffffffffffffffffffffffffffffff1681526020019081526020016000208481548110151561262d57fe5b9060005260206000200154611c83565b83612ab690919063ffffffff16565b91508080600101915050612590565b50919050565b6004602052816000526040600020602052806000526040600020600091509150508060000154908060010154908060020160009054906101000a900460ff16905083565b6000600160008473ffffffffffffffffffffffffffffffffffffffff1673ffffffffffffffffffffffffffffffffffffffff16815260200190815260200160002060008373ffffffffffffffffffffffffffffffffffffffff1673ffffffffffffffffffffffffffffffffffffffff16815260200190815260200160002054905092915050565b6040805190810160405280600481526020017f524542440000000000000000000000000000000000000000000000000000000081525081565b600073ffffffffffffffffffffffffffffffffffffffff168273ffffffffffffffffffffffffffffffffffffffff16141515156127a157600080fd5b600073ffffffffffffffffffffffffffffffffffffffff168373ffffffffffffffffffffffffffffffffffffffff16141515156127dd57600080fd5b80600160008573ffffffffffffffffffffffffffffffffffffffff1673ffffffffffffffffffffffffffffffffffffffff16815260200190815260200160002060008473ffffffffffffffffffffffffffffffffffffffff1673ffffffffffffffffffffffffffffffffffffffff168152602001908152602001600020819055508173ffffffffffffffffffffffffffffffffffffffff168373ffffffffffffffffffffffffffffffffffffffff167f8c5be1e5ebec7d5bd14f71427d1e84f3dd0314c0f7b2291e5b200ac8c7c3b925836040518082815260200191505060405180910390a3505050565b600073ffffffffffffffffffffffffffffffffffffffff168273ffffffffffffffffffffffffffffffffffffffff161415151561290457600080fd5b612955816000808673ffffffffffffffffffffffffffffffffffffffff1673ffffffffffffffffffffffffffffffffffffffff16815260200190815260200160002054612a9490919063ffffffff16565b6000808573ffffffffffffffffffffffffffffffffffffffff1673ffffffffffffffffffffffffffffffffffffffff168152602001908152602001600020819055506129e8816000808573ffffffffffffffffffffffffffffffffffffffff1673ffffffffffffffffffffffffffffffffffffffff16815260200190815260200160002054612ab690919063ffffffff16565b6000808473ffffffffffffffffffffffffffffffffffffffff1673ffffffffffffffffffffffffffffffffffffffff168152602001908152602001600020819055508173ffffffffffffffffffffffffffffffffffffffff168373ffffffffffffffffffffffffffffffffffffffff167fddf252ad1be2c89b69c2b068fc378daa952ba7f163c4a11628f55a4df523b3ef836040518082815260200191505060405180910390a3505050565b6000828211151515612aa557600080fd5b600082840390508091505092915050565b6000808284019050838110151515612acd57600080fd5b8091505092915050565b600073ffffffffffffffffffffffffffffffffffffffff168273ffffffffffffffffffffffffffffffffffffffff1614151515612b1357600080fd5b612b2881600254612ab690919063ffffffff16565b600281905550612b7f816000808573ffffffffffffffffffffffffffffffffffffffff1673ffffffffffffffffffffffffffffffffffffffff16815260200190815260200160002054612ab690919063ffffffff16565b6000808473ffffffffffffffffffffffffffffffffffffffff1673ffffffffffffffffffffffffffffffffffffffff168152602001908152602001600020819055508173ffffffffffffffffffffffffffffffffffffffff16600073ffffffffffffffffffffffffffffffffffffffff167fddf252ad1be2c89b69c2b068fc378daa952ba7f163c4a11628f55a4df523b3ef836040518082815260200191505060405180910390a35050565b600073ffffffffffffffffffffffffffffffffffffffff168273ffffffffffffffffffffffffffffffffffffffff1614151515612c6757600080fd5b612c7c81600254612a9490919063ffffffff16565b600281905550612cd3816000808573ffffffffffffffffffffffffffffffffffffffff1673ffffffffffffffffffffffffffffffffffffffff16815260200190815260200160002054612a9490919063ffffffff16565b6000808473ffffffffffffffffffffffffffffffffffffffff1673ffffffffffffffffffffffffffffffffffffffff16815260200190815260200160002081905550600073ffffffffffffffffffffffffffffffffffffffff168273ffffffffffffffffffffffffffffffffffffffff167fddf252ad1be2c89b69c2b068fc378daa952ba7f163c4a11628f55a4df523b3ef836040518082815260200191505060405180910390a35050565b612d898282612c2b565b612e228233612e1d84600160008873ffffffffffffffffffffffffffffffffffffffff1673ffffffffffffffffffffffffffffffffffffffff16815260200190815260200160002060003373ffffffffffffffffffffffffffffffffffffffff1673ffffffffffffffffffffffffffffffffffffffff16815260200190815260200160002054612a9490919063ffffffff16565b612765565b5050565b612e3a816008612f6e90919063ffffffff16565b8073ffffffffffffffffffffffffffffffffffffffff167f6ae172837ea30b801fbfcdd4108aa1d5bf8ff775444fd70256b44e6bf3dfc3f660405160405180910390a250565b612e9481600861301e90919063ffffffff16565b8073ffffffffffffffffffffffffffffffffffffffff167fe94479a9f7e1952cc78f2d6baab678adc1b772d936c6583def489e524cb6669260405160405180910390a250565b60008073ffffffffffffffffffffffffffffffffffffffff168273ffffffffffffffffffffffffffffffffffffffff1614151515612f1757600080fd5b8260000160008373ffffffffffffffffffffffffffffffffffffffff1673ffffffffffffffffffffffffffffffffffffffff16815260200190815260200160002060009054906101000a900460ff16905092915050565b600073ffffffffffffffffffffffffffffffffffffffff168173ffffffffffffffffffffffffffffffffffffffff1614151515612faa57600080fd5b612fb48282612eda565b151515612fc057600080fd5b60018260000160008373ffffffffffffffffffffffffffffffffffffffff1673ffffffffffffffffffffffffffffffffffffffff16815260200190815260200160002060006101000a81548160ff0219169083151502179055505050565b600073ffffffffffffffffffffffffffffffffffffffff168173ffffffffffffffffffffffffffffffffffffffff161415151561305a57600080fd5b6130648282612eda565b151561306f57600080fd5b60008260000160008373ffffffffffffffffffffffffffffffffffffffff1673ffffffffffffffffffffffffffffffffffffffff16815260200190815260200160002060006101000a81548160ff021916908315150217905550505056fea165627a7a72305820d1d7ed6be540055ba7608e3dc02cf5d45881761c941d3d1e3ac337fed606a7af0029",
  "source": "pragma solidity ^0.5.2;\n\nimport \"./ERC1132/ERC1132.sol\";\nimport \"openzeppelin-solidity/contracts/token/ERC20/ERC20.sol\";\nimport \"openzeppelin-solidity/contracts/token/ERC20/ERC20Detailed.sol\";\nimport \"openzeppelin-solidity/contracts/token/ERC20/ERC20Mintable.sol\";\nimport \"openzeppelin-solidity/contracts/token/ERC20/ERC20Burnable.sol\";\n\ncontract RebornDollar is ERC1132, ERC20Detailed, ERC20Mintable, ERC20Burnable {\n  string public constant NAME = \"Reborn Dollar\";\n  string public constant SYMBOL = \"REBD\";\n  uint8 public constant DECIMALS = 18;\n\n  uint256 public constant INITIAL_SUPPLY = 10000000000 * (10 ** uint256(DECIMALS));\n\n  constructor()\n    ERC20Burnable()\n    ERC20Mintable()\n    ERC20Detailed(NAME, SYMBOL, DECIMALS)\n    ERC20()\n    public\n  {\n    _mint(msg.sender, INITIAL_SUPPLY);\n  }\n}",
  "sourcePath": "/Users/mailiam/Documents/Project/pygd/reborn-token/contracts/RebornDollar.sol",
  "compiler": {
    "name": "solc",
    "version": "0.5.2+commit.1df8f40c.Emscripten.clang"
  },
  "schemaVersion": "3.0.6",
  "updatedAt": "2019-04-14T09:27:27.351Z",
  "devdoc": {
    "methods": {
      "allowance(address,address)": {
        "details": "Function to check the amount of tokens that an owner allowed to a spender.",
        "params": {
          "owner": "address The address which owns the funds.",
          "spender": "address The address which will spend the funds."
        },
        "return": "A uint256 specifying the amount of tokens still available for the spender."
      },
      "approve(address,uint256)": {
        "details": "Approve the passed address to spend the specified amount of tokens on behalf of msg.sender. Beware that changing an allowance with this method brings the risk that someone may use both the old and the new allowance by unfortunate transaction ordering. One possible solution to mitigate this race condition is to first reduce the spender's allowance to 0 and set the desired value afterwards: https://github.com/ethereum/EIPs/issues/20#issuecomment-263524729",
        "params": {
          "spender": "The address which will spend the funds.",
          "value": "The amount of tokens to be spent."
        }
      },
      "balanceOf(address)": {
        "details": "Gets the balance of the specified address.",
        "params": {
          "owner": "The address to query the balance of."
        },
        "return": "A uint256 representing the amount owned by the passed address."
      },
      "burn(uint256)": {
        "details": "Burns a specific amount of tokens.",
        "params": {
          "value": "The amount of token to be burned."
        }
      },
      "burnFrom(address,uint256)": {
        "details": "Burns a specific amount of tokens from the target address and decrements allowance",
        "params": {
          "from": "address The account whose tokens will be burned.",
          "value": "uint256 The amount of token to be burned."
        }
      },
      "decimals()": {
        "return": "the number of decimals of the token."
      },
      "decreaseAllowance(address,uint256)": {
        "details": "Decrease the amount of tokens that an owner allowed to a spender. approve should be called when _allowed[msg.sender][spender] == 0. To decrement allowed value is better to use this function to avoid 2 calls (and wait until the first transaction is mined) From MonolithDAO Token.sol Emits an Approval event.",
        "params": {
          "spender": "The address which will spend the funds.",
          "subtractedValue": "The amount of tokens to decrease the allowance by."
        }
      },
      "extendLock(bytes32,uint256)": {
        "details": "Extends lock for a specified reason and time",
        "params": {
          "_reason": "The reason to lock tokens",
          "_time": "Lock extension time in seconds"
        }
      },
      "getUnlockableTokens(address)": {
        "details": "Gets the unlockable tokens of a specified address",
        "params": {
          "_of": "The address to query the the unlockable token count of"
        }
      },
      "increaseAllowance(address,uint256)": {
        "details": "Increase the amount of tokens that an owner allowed to a spender. approve should be called when _allowed[msg.sender][spender] == 0. To increment allowed value is better to use this function to avoid 2 calls (and wait until the first transaction is mined) From MonolithDAO Token.sol Emits an Approval event.",
        "params": {
          "addedValue": "The amount of tokens to increase the allowance by.",
          "spender": "The address which will spend the funds."
        }
      },
      "increaseLockAmount(bytes32,uint256)": {
        "details": "Increase number of tokens locked for a specified reason",
        "params": {
          "_amount": "Number of tokens to be increased",
          "_reason": "The reason to lock tokens"
        }
      },
      "lock(bytes32,uint256,uint256)": {
        "details": "Locks a specified amount of tokens against an address,  for a specified reason and time",
        "params": {
          "_amount": "Number of tokens to be locked",
          "_reason": "The reason to lock tokens",
          "_time": "Lock time in seconds"
        }
      },
      "mint(address,uint256)": {
        "details": "Function to mint tokens",
        "params": {
          "to": "The address that will receive the minted tokens.",
          "value": "The amount of tokens to mint."
        },
        "return": "A boolean that indicates if the operation was successful."
      },
      "name()": {
        "return": "the name of the token."
      },
      "symbol()": {
        "return": "the symbol of the token."
      },
      "tokensLocked(address,bytes32)": {
        "details": "Returns tokens locked for a specified address for a  specified reason",
        "params": {
          "_of": "The address whose tokens are locked",
          "_reason": "The reason to query the lock tokens for"
        }
      },
      "tokensLockedAtTime(address,bytes32,uint256)": {
        "details": "Returns tokens locked for a specified address for a  specified reason at a specific time",
        "params": {
          "_of": "The address whose tokens are locked",
          "_reason": "The reason to query the lock tokens for",
          "_time": "The timestamp to query the lock tokens for"
        }
      },
      "tokensUnlockable(address,bytes32)": {
        "details": "Returns unlockable tokens for a specified address for a specified reason",
        "params": {
          "_of": "The address to query the the unlockable token count of",
          "_reason": "The reason to query the unlockable tokens for"
        }
      },
      "totalBalanceOf(address)": {
        "details": "Returns total tokens held by an address (locked + transferable)",
        "params": {
          "_of": "The address to query the total balance of"
        }
      },
      "totalSupply()": {
        "details": "Total number of tokens in existence"
      },
      "transfer(address,uint256)": {
        "details": "Transfer token to a specified address",
        "params": {
          "to": "The address to transfer to.",
          "value": "The amount to be transferred."
        }
      },
      "transferFrom(address,address,uint256)": {
        "details": "Transfer tokens from one address to another. Note that while this function emits an Approval event, this is not required as per the specification, and other compliant implementations may not emit the event.",
        "params": {
          "from": "address The address which you want to send tokens from",
          "to": "address The address which you want to transfer to",
          "value": "uint256 the amount of tokens to be transferred"
        }
      },
      "transferWithLock(address,bytes32,uint256,uint256)": {
        "details": "Transfers and Locks a specified amount of tokens,  for a specified reason and time",
        "params": {
          "_amount": "Number of tokens to be transfered and locked",
          "_reason": "The reason to lock tokens",
          "_time": "Lock time in seconds",
          "_to": "adress to which tokens are to be transfered"
        }
      },
      "unlock(address)": {
        "details": "Unlocks the unlockable tokens of a specified address",
        "params": {
          "_of": "Address of user, claiming back unlockable tokens"
        }
      }
    }
  },
  "userdoc": {
    "methods": {}
  }
}